{
  "contractName": "ColdChain",
  "abi": [
    {
      "anonymous": false,
      "inputs": [
        {
          "indexed": false,
          "internalType": "address",
          "name": "entityId",
          "type": "address"
        },
        {
          "indexed": false,
          "internalType": "string",
          "name": "entityMode",
          "type": "string"
        }
      ],
      "name": "AddEntity",
      "type": "event"
    },
    {
      "anonymous": false,
      "inputs": [
        {
          "indexed": false,
          "internalType": "uint256",
          "name": "vaccineBatchId",
          "type": "uint256"
        },
        {
          "indexed": true,
          "internalType": "address",
          "name": "manufacturer",
          "type": "address"
        }
      ],
      "name": "AddVaccineBatch",
      "type": "event"
    },
    {
      "anonymous": false,
      "inputs": [
        {
          "indexed": true,
          "internalType": "address",
          "name": "issuer",
          "type": "address"
        },
        {
          "indexed": true,
          "internalType": "address",
          "name": "prover",
          "type": "address"
        },
        {
          "indexed": false,
          "internalType": "uint256",
          "name": "certificateId",
          "type": "uint256"
        }
      ],
      "name": "IssueCertificate",
      "type": "event"
    },
    {
      "inputs": [],
      "name": "MAX_CERTIFICATIONS",
      "outputs": [
        {
          "internalType": "uint256",
          "name": "",
          "type": "uint256"
        }
      ],
      "stateMutability": "view",
      "type": "function",
      "constant": true
    },
    {
      "inputs": [
        {
          "internalType": "uint256",
          "name": "",
          "type": "uint256"
        }
      ],
      "name": "certificateIds",
      "outputs": [
        {
          "internalType": "uint256",
          "name": "",
          "type": "uint256"
        }
      ],
      "stateMutability": "view",
      "type": "function",
      "constant": true
    },
    {
      "inputs": [
        {
          "internalType": "uint256",
          "name": "",
          "type": "uint256"
        }
      ],
      "name": "certificates",
      "outputs": [
        {
          "internalType": "uint256",
          "name": "id",
          "type": "uint256"
        },
        {
          "components": [
            {
              "internalType": "address",
              "name": "id",
              "type": "address"
            },
            {
              "internalType": "enum ColdChain.Mode",
              "name": "mode",
              "type": "uint8"
            },
            {
              "internalType": "uint256[]",
              "name": "certificateIds",
              "type": "uint256[]"
            }
          ],
          "internalType": "struct ColdChain.Entity",
          "name": "issuer",
          "type": "tuple"
        },
        {
          "components": [
            {
              "internalType": "address",
              "name": "id",
              "type": "address"
            },
            {
              "internalType": "enum ColdChain.Mode",
              "name": "mode",
              "type": "uint8"
            },
            {
              "internalType": "uint256[]",
              "name": "certificateIds",
              "type": "uint256[]"
            }
          ],
          "internalType": "struct ColdChain.Entity",
          "name": "prover",
          "type": "tuple"
        },
        {
          "internalType": "bytes",
          "name": "signature",
          "type": "bytes"
        },
        {
          "internalType": "enum ColdChain.Status",
          "name": "status",
          "type": "uint8"
        }
      ],
      "stateMutability": "view",
      "type": "function",
      "constant": true
    },
    {
      "inputs": [
        {
          "internalType": "address",
          "name": "",
          "type": "address"
        }
      ],
      "name": "entities",
      "outputs": [
        {
          "internalType": "address",
          "name": "id",
          "type": "address"
        },
        {
          "internalType": "enum ColdChain.Mode",
          "name": "mode",
          "type": "uint8"
        }
      ],
      "stateMutability": "view",
      "type": "function",
      "constant": true
    },
    {
      "inputs": [
        {
          "internalType": "uint256",
          "name": "",
          "type": "uint256"
        }
      ],
      "name": "vaccineBatchIds",
      "outputs": [
        {
          "internalType": "uint256",
          "name": "",
          "type": "uint256"
        }
      ],
      "stateMutability": "view",
      "type": "function",
      "constant": true
    },
    {
      "inputs": [
        {
          "internalType": "uint256",
          "name": "",
          "type": "uint256"
        }
      ],
      "name": "vaccineBatches",
      "outputs": [
        {
          "internalType": "uint256",
          "name": "id",
          "type": "uint256"
        },
        {
          "internalType": "string",
          "name": "brand",
          "type": "string"
        },
        {
          "internalType": "address",
          "name": "manufacturer",
          "type": "address"
        }
      ],
      "stateMutability": "view",
      "type": "function",
      "constant": true
    },
    {
      "inputs": [
        {
          "internalType": "address",
          "name": "_id",
          "type": "address"
        },
        {
          "internalType": "string",
          "name": "_mode",
          "type": "string"
        }
      ],
      "name": "addEntity",
      "outputs": [],
      "stateMutability": "nonpayable",
      "type": "function"
    },
    {
      "inputs": [
        {
          "internalType": "string",
          "name": "brand",
          "type": "string"
        },
        {
          "internalType": "address",
          "name": "manufacturer",
          "type": "address"
        }
      ],
      "name": "addVaccineBatch",
      "outputs": [
        {
          "internalType": "uint256",
          "name": "",
          "type": "uint256"
        }
      ],
      "stateMutability": "nonpayable",
      "type": "function"
    },
    {
      "inputs": [
        {
          "internalType": "address",
          "name": "_issuer",
          "type": "address"
        },
        {
          "internalType": "address",
          "name": "_prover",
          "type": "address"
        },
        {
          "internalType": "string",
          "name": "_status",
          "type": "string"
        },
        {
          "internalType": "uint256",
          "name": "vaccineBatchId",
          "type": "uint256"
        },
        {
          "internalType": "bytes",
          "name": "signature",
          "type": "bytes"
        }
      ],
      "name": "issueCertificate",
      "outputs": [
        {
          "internalType": "uint256",
          "name": "",
          "type": "uint256"
        }
      ],
      "stateMutability": "nonpayable",
      "type": "function"
    },
    {
      "inputs": [
        {
          "internalType": "bytes32",
          "name": "message",
          "type": "bytes32"
        },
        {
          "internalType": "uint256",
          "name": "id",
          "type": "uint256"
        },
        {
          "internalType": "address",
          "name": "issuer",
          "type": "address"
        }
      ],
      "name": "isMatchingSignature",
      "outputs": [
        {
          "internalType": "bool",
          "name": "",
          "type": "bool"
        }
      ],
      "stateMutability": "view",
      "type": "function",
      "constant": true
    }
  ],
  "bytecode": "0x608060405234801561001057600080fd5b506126f8806100206000396000f3fe608060405234801561001057600080fd5b506004361061009e5760003560e01c8063663b3e2211610066578063663b3e22146101845780637aefaf39146101b8578063b5bad46d146101e8578063c8d8184b14610204578063fc79b0a9146102345761009e565b806303a692b9146100a35780630f9c774d146100d55780631d8ee48a1461010557806345194c07146101365780634851a01d14610166575b600080fd5b6100bd60048036038101906100b8919061186c565b610264565b6040516100cc93929190611982565b60405180910390f35b6100ef60048036038101906100ea919061186c565b610336565b6040516100fc91906119c0565b60405180910390f35b61011f600480360381019061011a9190611a07565b61035a565b60405161012d929190611aab565b60405180910390f35b610150600480360381019061014b9190611b0a565b6103ab565b60405161015d9190611b78565b60405180910390f35b61016e610733565b60405161017b91906119c0565b60405180910390f35b61019e6004803603810190610199919061186c565b610738565b6040516101af959493929190611d5c565b60405180910390f35b6101d260048036038101906101cd919061186c565b6109e9565b6040516101df91906119c0565b60405180910390f35b61020260048036038101906101fd9190611ef9565b610a0d565b005b61021e60048036038101906102199190611ff6565b610bca565b60405161022b91906119c0565b60405180910390f35b61024e600480360381019061024991906120a9565b611178565b60405161025b91906119c0565b60405180910390f35b600260205280600052604060002060009150905080600001549080600101805461028d90612134565b80601f01602080910402602001604051908101604052809291908181526020018280546102b990612134565b80156103065780601f106102db57610100808354040283529160200191610306565b820191906000526020600020905b8154815290600101906020018083116102e957829003601f168201915b5050505050908060020160009054906101000a900473ffffffffffffffffffffffffffffffffffffffff16905083565b6000818154811061034657600080fd5b906000526020600020016000915090505481565b60046020528060005260406000206000915090508060000160009054906101000a900473ffffffffffffffffffffffffffffffffffffffff16908060000160149054906101000a900460ff16905082565b600080600360008581526020019081526020016000206040518060a001604052908160008201548152602001600182016040518060600160405290816000820160009054906101000a900473ffffffffffffffffffffffffffffffffffffffff1673ffffffffffffffffffffffffffffffffffffffff1673ffffffffffffffffffffffffffffffffffffffff1681526020016000820160149054906101000a900460ff16600281111561046157610460611a34565b5b600281111561047357610472611a34565b5b8152602001600182018054806020026020016040519081016040528092919081815260200182805480156104c657602002820191906000526020600020905b8154815260200190600101908083116104b2575b5050505050815250508152602001600382016040518060600160405290816000820160009054906101000a900473ffffffffffffffffffffffffffffffffffffffff1673ffffffffffffffffffffffffffffffffffffffff1673ffffffffffffffffffffffffffffffffffffffff1681526020016000820160149054906101000a900460ff16600281111561055e5761055d611a34565b5b60028111156105705761056f611a34565b5b8152602001600182018054806020026020016040519081016040528092919081815260200182805480156105c357602002820191906000526020600020905b8154815260200190600101908083116105af575b50505050508152505081526020016005820180546105e090612134565b80601f016020809104026020016040519081016040528092919081815260200182805461060c90612134565b80156106595780601f1061062e57610100808354040283529160200191610659565b820191906000526020600020905b81548152906001019060200180831161063c57829003601f168201915b505050505081526020016006820160009054906101000a900460ff16600481111561068757610686611a34565b5b600481111561069957610698611a34565b5b8152505090508273ffffffffffffffffffffffffffffffffffffffff1681602001516000015173ffffffffffffffffffffffffffffffffffffffff16146106df57600080fd5b60006106ef868360600151611339565b905081602001516000015173ffffffffffffffffffffffffffffffffffffffff168173ffffffffffffffffffffffffffffffffffffffff1614925050509392505050565b600281565b6003602052806000526040600020600091509050806000015490806001016040518060600160405290816000820160009054906101000a900473ffffffffffffffffffffffffffffffffffffffff1673ffffffffffffffffffffffffffffffffffffffff1673ffffffffffffffffffffffffffffffffffffffff1681526020016000820160149054906101000a900460ff1660028111156107dc576107db611a34565b5b60028111156107ee576107ed611a34565b5b81526020016001820180548060200260200160405190810160405280929190818152602001828054801561084157602002820191906000526020600020905b81548152602001906001019080831161082d575b50505050508152505090806003016040518060600160405290816000820160009054906101000a900473ffffffffffffffffffffffffffffffffffffffff1673ffffffffffffffffffffffffffffffffffffffff1673ffffffffffffffffffffffffffffffffffffffff1681526020016000820160149054906101000a900460ff1660028111156108d5576108d4611a34565b5b60028111156108e7576108e6611a34565b5b81526020016001820180548060200260200160405190810160405280929190818152602001828054801561093a57602002820191906000526020600020905b815481526020019060010190808311610926575b5050505050815250509080600501805461095390612134565b80601f016020809104026020016040519081016040528092919081815260200182805461097f90612134565b80156109cc5780601f106109a1576101008083540402835291602001916109cc565b820191906000526020600020905b8154815290600101906020018083116109af57829003601f168201915b5050505050908060060160009054906101000a900460ff16905085565b600181815481106109f957600080fd5b906000526020600020016000915090505481565b6000610a18826113a8565b90506000600267ffffffffffffffff811115610a3757610a36611dce565b5b604051908082528060200260200182016040528015610a655781602001602082028036833780820191505090505b509050600060405180606001604052808673ffffffffffffffffffffffffffffffffffffffff168152602001846002811115610aa457610aa3611a34565b5b815260200183815250905080600460008773ffffffffffffffffffffffffffffffffffffffff1673ffffffffffffffffffffffffffffffffffffffff16815260200190815260200160002060008201518160000160006101000a81548173ffffffffffffffffffffffffffffffffffffffff021916908373ffffffffffffffffffffffffffffffffffffffff16021790555060208201518160000160146101000a81548160ff02191690836002811115610b6157610b60611a34565b5b02179055506040820151816001019080519060200190610b829291906116ac565b509050507ff5a37da00f0e4029ee2682b1919ee55d7e6f9d7492237aad9bd1aea7d53d4874816000015185604051610bbb929190612166565b60405180910390a15050505050565b600080600460008873ffffffffffffffffffffffffffffffffffffffff1673ffffffffffffffffffffffffffffffffffffffff1681526020019081526020016000206040518060600160405290816000820160009054906101000a900473ffffffffffffffffffffffffffffffffffffffff1673ffffffffffffffffffffffffffffffffffffffff1673ffffffffffffffffffffffffffffffffffffffff1681526020016000820160149054906101000a900460ff166002811115610c9257610c91611a34565b5b6002811115610ca457610ca3611a34565b5b815260200160018201805480602002602001604051908101604052809291908181526020018280548015610cf757602002820191906000526020600020905b815481526020019060010190808311610ce3575b505050505081525050905060006002811115610d1657610d15611a34565b5b81602001516002811115610d2d57610d2c611a34565b5b14610d3757600080fd5b6000600460008873ffffffffffffffffffffffffffffffffffffffff1673ffffffffffffffffffffffffffffffffffffffff1681526020019081526020016000206040518060600160405290816000820160009054906101000a900473ffffffffffffffffffffffffffffffffffffffff1673ffffffffffffffffffffffffffffffffffffffff1673ffffffffffffffffffffffffffffffffffffffff1681526020016000820160149054906101000a900460ff166002811115610dfe57610dfd611a34565b5b6002811115610e1057610e0f611a34565b5b815260200160018201805480602002602001604051908101604052809291908181526020018280548015610e6357602002820191906000526020600020905b815481526020019060010190808311610e4f575b505050505081525050905060016002811115610e8257610e81611a34565b5b81602001516002811115610e9957610e98611a34565b5b14610ea357600080fd5b6000610eae876114ce565b905060008080549050905060006040518060a00160405280838152602001868152602001858152602001888152602001846004811115610ef157610ef0611a34565b5b815250905060008080549050908060018154018082558091505060019003906000526020600020016000909190919091505580600360006001600080549050610f3a91906121c5565b81526020019081526020016000206000820151816000015560208201518160010160008201518160000160006101000a81548173ffffffffffffffffffffffffffffffffffffffff021916908373ffffffffffffffffffffffffffffffffffffffff16021790555060208201518160000160146101000a81548160ff02191690836002811115610fcd57610fcc611a34565b5b02179055506040820151816001019080519060200190610fee9291906116ac565b50505060408201518160030160008201518160000160006101000a81548173ffffffffffffffffffffffffffffffffffffffff021916908373ffffffffffffffffffffffffffffffffffffffff16021790555060208201518160000160146101000a81548160ff0219169083600281111561106c5761106b611a34565b5b0217905550604082015181600101908051906020019061108d9291906116ac565b50505060608201518160050190805190602001906110ac9291906116f9565b5060808201518160060160006101000a81548160ff021916908360048111156110d8576110d7611a34565b5b02179055509050508973ffffffffffffffffffffffffffffffffffffffff168b73ffffffffffffffffffffffffffffffffffffffff167fc9e3e855764ebb21ed83dcdf8ed5e1398c752d6446308e092c28a84a77a199bd600160008054905061114191906121c5565b60405161114e91906119c0565b60405180910390a3600160008054905061116891906121c5565b9550505050505095945050505050565b600080600267ffffffffffffffff81111561119657611195611dce565b5b6040519080825280602002602001820160405280156111c45781602001602082028036833780820191505090505b50905060006001805490509050600060405180608001604052808381526020018781526020018673ffffffffffffffffffffffffffffffffffffffff168152602001848152509050806002600084815260200190815260200160002060008201518160000155602082015181600101908051906020019061124692919061177f565b5060408201518160020160006101000a81548173ffffffffffffffffffffffffffffffffffffffff021916908373ffffffffffffffffffffffffffffffffffffffff16021790555060608201518160030190805190602001906112aa9291906116ac565b509050506001829080600181540180825580915050600190039060005260206000200160009091909190915055806040015173ffffffffffffffffffffffffffffffffffffffff167fe85391abb5e51659c581dd95107048251657ee66755655cc08c9c0ec3a0a9139826000015160405161132591906119c0565b60405180910390a281935050505092915050565b6000806000806113488561167a565b925092509250600186848484604051600081526020016040526040516113719493929190612224565b6020604051602081039080840390855afa158015611393573d6000803e3d6000fd5b50505060206040510351935050505092915050565b600080826040516020016113bc91906122a5565b60405160208183030381529060405280519060200120905060006040516020016113e590612308565b604051602081830303815290604052805190602001209050600060405160200161140e90612369565b6040516020818303038152906040528051906020012090506000604051602001611437906123ca565b604051602081830303815290604052805190602001209050828414156114645760009450505050506114c9565b818414156114795760019450505050506114c9565b8084141561148e5760029450505050506114c9565b6040517f08c379a00000000000000000000000000000000000000000000000000000000081526004016114c09061242b565b60405180910390fd5b919050565b600080826040516020016114e291906122a5565b604051602081830303815290604052805190602001209050600060405160200161150b90612497565b6040516020818303038152906040528051906020012090506000604051602001611534906124f8565b604051602081830303815290604052805190602001209050600060405160200161155d90612559565b6040516020818303038152906040528051906020012090506000604051602001611586906125ba565b60405160208183030381529060405280519060200120905060006040516020016115af9061261b565b604051602081830303815290604052805190602001209050848614156115de5760009650505050505050611675565b838614156115f55760019650505050505050611675565b8286141561160c5760029650505050505050611675565b818614156116235760039650505050505050611675565b8086141561163a5760049650505050505050611675565b6040517f08c379a000000000000000000000000000000000000000000000000000000000815260040161166c906126a2565b60405180910390fd5b919050565b6000806000604184511461168d57600080fd5b6020840151915060408401519050606084015160001a92509193909250565b8280548282559060005260206000209081019282156116e8579160200282015b828111156116e75782518255916020019190600101906116cc565b5b5090506116f59190611805565b5090565b82805461170590612134565b90600052602060002090601f016020900481019282611727576000855561176e565b82601f1061174057805160ff191683800117855561176e565b8280016001018555821561176e579182015b8281111561176d578251825591602001919060010190611752565b5b50905061177b9190611805565b5090565b82805461178b90612134565b90600052602060002090601f0160209004810192826117ad57600085556117f4565b82601f106117c657805160ff19168380011785556117f4565b828001600101855582156117f4579182015b828111156117f35782518255916020019190600101906117d8565b5b5090506118019190611805565b5090565b5b8082111561181e576000816000905550600101611806565b5090565b6000604051905090565b600080fd5b600080fd5b6000819050919050565b61184981611836565b811461185457600080fd5b50565b60008135905061186681611840565b92915050565b6000602082840312156118825761188161182c565b5b600061189084828501611857565b91505092915050565b6118a281611836565b82525050565b600081519050919050565b600082825260208201905092915050565b60005b838110156118e25780820151818401526020810190506118c7565b838111156118f1576000848401525b50505050565b6000601f19601f8301169050919050565b6000611913826118a8565b61191d81856118b3565b935061192d8185602086016118c4565b611936816118f7565b840191505092915050565b600073ffffffffffffffffffffffffffffffffffffffff82169050919050565b600061196c82611941565b9050919050565b61197c81611961565b82525050565b60006060820190506119976000830186611899565b81810360208301526119a98185611908565b90506119b86040830184611973565b949350505050565b60006020820190506119d56000830184611899565b92915050565b6119e481611961565b81146119ef57600080fd5b50565b600081359050611a01816119db565b92915050565b600060208284031215611a1d57611a1c61182c565b5b6000611a2b848285016119f2565b91505092915050565b7f4e487b7100000000000000000000000000000000000000000000000000000000600052602160045260246000fd5b60038110611a7457611a73611a34565b5b50565b6000819050611a8582611a63565b919050565b6000611a9582611a77565b9050919050565b611aa581611a8a565b82525050565b6000604082019050611ac06000830185611973565b611acd6020830184611a9c565b9392505050565b6000819050919050565b611ae781611ad4565b8114611af257600080fd5b50565b600081359050611b0481611ade565b92915050565b600080600060608486031215611b2357611b2261182c565b5b6000611b3186828701611af5565b9350506020611b4286828701611857565b9250506040611b53868287016119f2565b9150509250925092565b60008115159050919050565b611b7281611b5d565b82525050565b6000602082019050611b8d6000830184611b69565b92915050565b611b9c81611961565b82525050565b611bab81611a8a565b82525050565b600081519050919050565b600082825260208201905092915050565b6000819050602082019050919050565b611be681611836565b82525050565b6000611bf88383611bdd565b60208301905092915050565b6000602082019050919050565b6000611c1c82611bb1565b611c268185611bbc565b9350611c3183611bcd565b8060005b83811015611c62578151611c498882611bec565b9750611c5483611c04565b925050600181019050611c35565b5085935050505092915050565b6000606083016000830151611c876000860182611b93565b506020830151611c9a6020860182611ba2565b5060408301518482036040860152611cb28282611c11565b9150508091505092915050565b600081519050919050565b600082825260208201905092915050565b6000611ce682611cbf565b611cf08185611cca565b9350611d008185602086016118c4565b611d09816118f7565b840191505092915050565b60058110611d2557611d24611a34565b5b50565b6000819050611d3682611d14565b919050565b6000611d4682611d28565b9050919050565b611d5681611d3b565b82525050565b600060a082019050611d716000830188611899565b8181036020830152611d838187611c6f565b90508181036040830152611d978186611c6f565b90508181036060830152611dab8185611cdb565b9050611dba6080830184611d4d565b9695505050505050565b600080fd5b600080fd5b7f4e487b7100000000000000000000000000000000000000000000000000000000600052604160045260246000fd5b611e06826118f7565b810181811067ffffffffffffffff82111715611e2557611e24611dce565b5b80604052505050565b6000611e38611822565b9050611e448282611dfd565b919050565b600067ffffffffffffffff821115611e6457611e63611dce565b5b611e6d826118f7565b9050602081019050919050565b82818337600083830152505050565b6000611e9c611e9784611e49565b611e2e565b905082815260208101848484011115611eb857611eb7611dc9565b5b611ec3848285611e7a565b509392505050565b600082601f830112611ee057611edf611dc4565b5b8135611ef0848260208601611e89565b91505092915050565b60008060408385031215611f1057611f0f61182c565b5b6000611f1e858286016119f2565b925050602083013567ffffffffffffffff811115611f3f57611f3e611831565b5b611f4b85828601611ecb565b9150509250929050565b600067ffffffffffffffff821115611f7057611f6f611dce565b5b611f79826118f7565b9050602081019050919050565b6000611f99611f9484611f55565b611e2e565b905082815260208101848484011115611fb557611fb4611dc9565b5b611fc0848285611e7a565b509392505050565b600082601f830112611fdd57611fdc611dc4565b5b8135611fed848260208601611f86565b91505092915050565b600080600080600060a086880312156120125761201161182c565b5b6000612020888289016119f2565b9550506020612031888289016119f2565b945050604086013567ffffffffffffffff81111561205257612051611831565b5b61205e88828901611ecb565b935050606061206f88828901611857565b925050608086013567ffffffffffffffff8111156120905761208f611831565b5b61209c88828901611fc8565b9150509295509295909350565b600080604083850312156120c0576120bf61182c565b5b600083013567ffffffffffffffff8111156120de576120dd611831565b5b6120ea85828601611ecb565b92505060206120fb858286016119f2565b9150509250929050565b7f4e487b7100000000000000000000000000000000000000000000000000000000600052602260045260246000fd5b6000600282049050600182168061214c57607f821691505b602082108114156121605761215f612105565b5b50919050565b600060408201905061217b6000830185611973565b818103602083015261218d8184611908565b90509392505050565b7f4e487b7100000000000000000000000000000000000000000000000000000000600052601160045260246000fd5b60006121d082611836565b91506121db83611836565b9250828210156121ee576121ed612196565b5b828203905092915050565b61220281611ad4565b82525050565b600060ff82169050919050565b61221e81612208565b82525050565b600060808201905061223960008301876121f9565b6122466020830186612215565b61225360408301856121f9565b61226060608301846121f9565b95945050505050565b600081905092915050565b600061227f826118a8565b6122898185612269565b93506122998185602086016118c4565b80840191505092915050565b60006122b18284612274565b915081905092915050565b7f4953535545520000000000000000000000000000000000000000000000000000600082015250565b60006122f2600683612269565b91506122fd826122bc565b600682019050919050565b6000612313826122e5565b9150819050919050565b7f50524f5645520000000000000000000000000000000000000000000000000000600082015250565b6000612353600683612269565b915061235e8261231d565b600682019050919050565b600061237482612346565b9150819050919050565b7f5645524946494552000000000000000000000000000000000000000000000000600082015250565b60006123b4600883612269565b91506123bf8261237e565b600882019050919050565b60006123d5826123a7565b9150819050919050565b7f726563656976656420696e76616c696420656e74697479206d6f646500000000600082015250565b6000612415601c836118b3565b9150612420826123df565b602082019050919050565b6000602082019050818103600083015261244481612408565b9050919050565b7f4d414e5546414354555245440000000000000000000000000000000000000000600082015250565b6000612481600c83612269565b915061248c8261244b565b600c82019050919050565b60006124a282612474565b9150819050919050565b7f44454c49564552494e475f494e5445524e4154494f4e414c0000000000000000600082015250565b60006124e2601883612269565b91506124ed826124ac565b601882019050919050565b6000612503826124d5565b9150819050919050565b7f53544f5245440000000000000000000000000000000000000000000000000000600082015250565b6000612543600683612269565b915061254e8261250d565b600682019050919050565b600061256482612536565b9150819050919050565b7f44454c49564552494e475f4c4f43414c00000000000000000000000000000000600082015250565b60006125a4601083612269565b91506125af8261256e565b601082019050919050565b60006125c582612597565b9150819050919050565b7f44454c4956455245440000000000000000000000000000000000000000000000600082015250565b6000612605600983612269565b9150612610826125cf565b600982019050919050565b6000612626826125f8565b9150819050919050565b7f726563656976656420696e76616c69642063657274696669636174696f6e207360008201527f7461747573000000000000000000000000000000000000000000000000000000602082015250565b600061268c6025836118b3565b915061269782612630565b604082019050919050565b600060208201905081810360008301526126bb8161267f565b905091905056fea264697066735822122077d6130b7f7ab469f6dc986777458b1b94d1c485b02265343c6eb04d58f2109e64736f6c634300080b0033",
  "immutableReferences": {},
  "source": "// SPDX-License-Identifier: MIT\npragma solidity >=0.7.0 <0.9.0;\n\nlibrary CryptoSuite {\n    function splitSignature(bytes memory sig) internal pure returns(uint8 v, bytes32 r, bytes32 s) {\n        require(sig.length == 65);\n        assembly {\n            // first 32 bytes\n            r := mload(add(sig, 32))\n\n            // second 32 bytes\n            s := mload(add(sig, 64))\n\n            //  third 32 bytes\n            v := byte(0, mload (add(sig, 96)))\n        }\n        return (v,r,s);\n    }\n    function recoverSigner(bytes32 message, bytes memory sig) internal pure returns (address) {\n        (uint8 v, bytes32 r, bytes32 s) = splitSignature(sig);\n\n        return ecrecover(message, v, r, s);\n    }\n}\n\ncontract ColdChain {\n\n    enum Mode { ISSUER, PROVER, VERIFIER }\n    struct Entity {\n        address id;\n        Mode mode;\n        uint[] certificateIds;\n    }\n\n    enum Status { MANUFACTURED, DELIVERING_INTERNATIONAL, STORED, DELIVERING_LOCAL, DELIVERED }\n\n    struct Certificate {\n        uint id;\n        Entity issuer;\n        Entity prover;\n        bytes signature;\n        Status status;\n    }\n    struct VaccineBatch {\n        uint id;\n        string brand;\n        address manufacturer;\n        uint[] certificateIds;\n    }\n\n    uint public constant MAX_CERTIFICATIONS = 2;\n    uint[] public certificateIds;\n    uint[] public vaccineBatchIds;\n\n    mapping(uint => VaccineBatch) public vaccineBatches;\n    mapping(uint => Certificate) public certificates;\n    mapping(address => Entity) public entities;\n\n    event AddEntity(address entityId, string entityMode);\n    event AddVaccineBatch(uint vaccineBatchId, address indexed manufacturer);\n    event IssueCertificate(address indexed issuer, address indexed prover, uint certificateId);\n\n// add entity\n    function addEntity(address _id, string memory _mode) public {\n        Mode mode = unmarshalMode(_mode);\n        uint[] memory _certificateIds = new uint[](MAX_CERTIFICATIONS);\n        Entity memory entity = Entity(_id, mode, _certificateIds);\n        entities[_id] = entity;\n        emit AddEntity(entity.id, _mode);\n    }\n\n    function unmarshalMode(string memory _mode) private pure returns(Mode mode) {\n        bytes32 encodedMode = keccak256(abi.encodePacked(_mode));\n        bytes32 encodedMode0 = keccak256(abi.encodePacked(\"ISSUER\"));\n        bytes32 encodedMode1 = keccak256(abi.encodePacked(\"PROVER\"));\n        bytes32 encodedMode2 = keccak256(abi.encodePacked(\"VERIFIER\"));\n\n        if(encodedMode == encodedMode0) {\n            return Mode.ISSUER;\n        } \n        else if(encodedMode == encodedMode1) {\n            return Mode.PROVER;\n        } \n        else if(encodedMode == encodedMode2) {\n            return Mode.VERIFIER;\n        } \n        revert(\"received invalid entity mode\");\n    }\n\n\n//  vax batch\n    function addVaccineBatch(string memory brand, address manufacturer) public returns(uint){\n        uint[] memory _certificateIds = new uint[](MAX_CERTIFICATIONS);\n        uint id = vaccineBatchIds.length;\n        VaccineBatch memory batch = VaccineBatch(id, brand, manufacturer, _certificateIds);\n        \n        vaccineBatches[id] = batch;\n        vaccineBatchIds.push(id);\n\n        emit AddVaccineBatch(batch.id, batch.manufacturer);\n        return id;\n    }\n    function issueCertificate(\n        address _issuer, address _prover, string memory _status, \n        uint vaccineBatchId, bytes memory signature) public returns (uint) {\n            Entity memory issuer = entities[_issuer];\n            require(issuer.mode == Mode.ISSUER);\n\n            Entity memory prover = entities[_prover];\n            require(prover.mode == Mode.PROVER);\n\n            Status status = unmarshalStatus(_status);\n\n            uint id = certificateIds.length;\n            Certificate memory certificate = Certificate(id, issuer, prover, signature, status);\n\n            certificateIds.push(certificateIds.length);\n            certificates[certificateIds.length-1] = certificate;\n\n            emit IssueCertificate(_issuer, _prover, certificateIds.length-1);\n\n            return certificateIds.length-1;\n\n\n        }\n\n    function unmarshalStatus(string memory _status) private pure returns(Status status) {\n        bytes32 encodedStatus = keccak256(abi.encodePacked(_status));\n        bytes32 encodedStatus0 = keccak256(abi.encodePacked(\"MANUFACTURED\"));\n        bytes32 encodedStatus1 = keccak256(abi.encodePacked(\"DELIVERING_INTERNATIONAL\"));\n        bytes32 encodedStatus2 = keccak256(abi.encodePacked(\"STORED\"));\n        bytes32 encodedStatus3 = keccak256(abi.encodePacked(\"DELIVERING_LOCAL\"));\n        bytes32 encodedStatus4 = keccak256(abi.encodePacked(\"DELIVERED\"));\n\n        if(encodedStatus == encodedStatus0) {\n            return Status.MANUFACTURED;\n        } \n        else if(encodedStatus == encodedStatus1) {\n            return Status.DELIVERING_INTERNATIONAL;\n        } \n        else if(encodedStatus == encodedStatus2) {\n            return Status.STORED;\n        } \n        else if(encodedStatus == encodedStatus3) {\n            return Status.DELIVERING_LOCAL;\n        } \n        else if(encodedStatus == encodedStatus4) {\n            return Status.DELIVERED;\n        } \n        \n        revert(\"received invalid certification status\");\n    }\n    function isMatchingSignature(bytes32 message, uint id, address issuer) public view returns (bool) {\n        Certificate memory cert = certificates[id];\n        require(cert.issuer.id == issuer);\n\n        address recoveredSigner = CryptoSuite.recoverSigner(message, cert.signature);\n\n        return recoveredSigner == cert.issuer.id;\n\n    }\n\n\n\n\n\n}",
  "sourcePath": "/home/cdx/solidity_supply_chain/contracts/ColdChain.sol",
  "compiler": {
    "name": "solc",
    "version": "0.8.11+commit.d7f03943.Emscripten.clang"
  },
  "schemaVersion": "3.4.4",
  "updatedAt": "2022-01-26T14:48:23.949Z",
  "networkType": "ethereum",
  "devdoc": {
    "kind": "dev",
    "methods": {},
    "version": 1
  },
  "userdoc": {
    "kind": "user",
    "methods": {},
    "version": 1
  }
}